{
  "address": "0x7b21Be5DF7Be05E1FAEB88ae633371e11c132c82",
  "abi": [
    {
      "inputs": [
        {
          "internalType": "address",
          "name": "_owner",
          "type": "address"
        }
      ],
      "stateMutability": "nonpayable",
      "type": "constructor"
    },
    {
      "anonymous": false,
      "inputs": [
        {
          "indexed": true,
          "internalType": "address",
          "name": "user",
          "type": "address"
        },
        {
          "indexed": false,
          "internalType": "uint256",
          "name": "amount",
          "type": "uint256"
        },
        {
          "indexed": false,
          "internalType": "uint256",
          "name": "newBalance",
          "type": "uint256"
        }
      ],
      "name": "BalanceDeposited",
      "type": "event"
    },
    {
      "anonymous": false,
      "inputs": [
        {
          "indexed": true,
          "internalType": "address",
          "name": "user",
          "type": "address"
        },
        {
          "indexed": false,
          "internalType": "uint256",
          "name": "amount",
          "type": "uint256"
        },
        {
          "indexed": false,
          "internalType": "uint256",
          "name": "remainingBalance",
          "type": "uint256"
        }
      ],
      "name": "BalanceWithdrawn",
      "type": "event"
    },
    {
      "anonymous": false,
      "inputs": [
        {
          "indexed": true,
          "internalType": "address",
          "name": "user",
          "type": "address"
        },
        {
          "indexed": false,
          "internalType": "uint256",
          "name": "amount",
          "type": "uint256"
        },
        {
          "indexed": false,
          "internalType": "uint256",
          "name": "totalSwipes",
          "type": "uint256"
        }
      ],
      "name": "RewardGiven",
      "type": "event"
    },
    {
      "anonymous": false,
      "inputs": [
        {
          "indexed": true,
          "internalType": "address",
          "name": "user",
          "type": "address"
        },
        {
          "indexed": false,
          "internalType": "uint256",
          "name": "swipeCount",
          "type": "uint256"
        },
        {
          "indexed": false,
          "internalType": "uint256",
          "name": "fee",
          "type": "uint256"
        }
      ],
      "name": "SwipeRecorded",
      "type": "event"
    },
    {
      "inputs": [],
      "name": "REWARD_AMOUNT",
      "outputs": [
        {
          "internalType": "uint256",
          "name": "",
          "type": "uint256"
        }
      ],
      "stateMutability": "view",
      "type": "function"
    },
    {
      "inputs": [],
      "name": "REWARD_THRESHOLD",
      "outputs": [
        {
          "internalType": "uint256",
          "name": "",
          "type": "uint256"
        }
      ],
      "stateMutability": "view",
      "type": "function"
    },
    {
      "inputs": [],
      "name": "SWIPE_FEE",
      "outputs": [
        {
          "internalType": "uint256",
          "name": "",
          "type": "uint256"
        }
      ],
      "stateMutability": "view",
      "type": "function"
    },
    {
      "inputs": [],
      "name": "deposit",
      "outputs": [],
      "stateMutability": "payable",
      "type": "function"
    },
    {
      "inputs": [],
      "name": "fundContract",
      "outputs": [],
      "stateMutability": "payable",
      "type": "function"
    },
    {
      "inputs": [],
      "name": "getContractBalance",
      "outputs": [
        {
          "internalType": "uint256",
          "name": "",
          "type": "uint256"
        }
      ],
      "stateMutability": "view",
      "type": "function"
    },
    {
      "inputs": [
        {
          "internalType": "address",
          "name": "user",
          "type": "address"
        }
      ],
      "name": "getSwipesToNextReward",
      "outputs": [
        {
          "internalType": "uint256",
          "name": "",
          "type": "uint256"
        }
      ],
      "stateMutability": "view",
      "type": "function"
    },
    {
      "inputs": [
        {
          "internalType": "address",
          "name": "user",
          "type": "address"
        }
      ],
      "name": "getUserBalance",
      "outputs": [
        {
          "internalType": "uint256",
          "name": "",
          "type": "uint256"
        }
      ],
      "stateMutability": "view",
      "type": "function"
    },
    {
      "inputs": [
        {
          "internalType": "address",
          "name": "user",
          "type": "address"
        }
      ],
      "name": "getUserStats",
      "outputs": [
        {
          "internalType": "uint256",
          "name": "swipes",
          "type": "uint256"
        },
        {
          "internalType": "uint256",
          "name": "rewards",
          "type": "uint256"
        },
        {
          "internalType": "uint256",
          "name": "balance",
          "type": "uint256"
        }
      ],
      "stateMutability": "view",
      "type": "function"
    },
    {
      "inputs": [],
      "name": "owner",
      "outputs": [
        {
          "internalType": "address",
          "name": "",
          "type": "address"
        }
      ],
      "stateMutability": "view",
      "type": "function"
    },
    {
      "inputs": [],
      "name": "recordSwipe",
      "outputs": [],
      "stateMutability": "nonpayable",
      "type": "function"
    },
    {
      "inputs": [
        {
          "internalType": "address",
          "name": "",
          "type": "address"
        }
      ],
      "name": "userBalance",
      "outputs": [
        {
          "internalType": "uint256",
          "name": "",
          "type": "uint256"
        }
      ],
      "stateMutability": "view",
      "type": "function"
    },
    {
      "inputs": [
        {
          "internalType": "address",
          "name": "",
          "type": "address"
        }
      ],
      "name": "userSwipeCount",
      "outputs": [
        {
          "internalType": "uint256",
          "name": "",
          "type": "uint256"
        }
      ],
      "stateMutability": "view",
      "type": "function"
    },
    {
      "inputs": [
        {
          "internalType": "address",
          "name": "",
          "type": "address"
        }
      ],
      "name": "userTotalRewards",
      "outputs": [
        {
          "internalType": "uint256",
          "name": "",
          "type": "uint256"
        }
      ],
      "stateMutability": "view",
      "type": "function"
    },
    {
      "inputs": [
        {
          "internalType": "uint256",
          "name": "amount",
          "type": "uint256"
        }
      ],
      "name": "withdraw",
      "outputs": [],
      "stateMutability": "nonpayable",
      "type": "function"
    },
    {
      "inputs": [],
      "name": "withdraw",
      "outputs": [],
      "stateMutability": "nonpayable",
      "type": "function"
    },
    {
      "stateMutability": "payable",
      "type": "receive"
    }
  ],
  "transactionHash": "0xb241e9fdfd44edb673d1870a408c0a9d3244b3c0936d05bdcb6fbca6a2df5cae",
  "args": [
    "0x1B5e082a6dEe1E07701c713952278b33865fE253"
  ],
  "numDeployments": 2,
  "solcInputHash": "c915c480a464fe1ac7290fef9e1997f2",
  "bytecode": "0x60a060405234801561001057600080fd5b50604051610daa380380610daa83398101604081905261002f91610040565b6001600160a01b0316608052610070565b60006020828403121561005257600080fd5b81516001600160a01b038116811461006957600080fd5b9392505050565b608051610d0a6100a06000396000818161025601528181610563015281816105c401526108180152610d0a6000f3fe6080604052600436106100f75760003560e01c8063b68b58581161008a578063d0e30db011610059578063d0e30db0146102f5578063d48ff3ff146102fd578063e7bdba321461031d578063f6a3f3cf1461033257600080fd5b8063b68b585814610290578063ba5a36d5146102a5578063bd097e21146102d2578063cf849442146102da57600080fd5b806347734892116100c657806347734892146101955780634e43603a146101cb5780636f9fb98a146102315780638da5cb5b1461024457600080fd5b80630103c92b146101035780632e1a7d4d146101435780633ccfd60b146101655780634443dce91461017a57600080fd5b366100fe57005b600080fd5b34801561010f57600080fd5b5061013061011e366004610ba8565b60026020526000908152604090205481565b6040519081526020015b60405180910390f35b34801561014f57600080fd5b5061016361015e366004610bd8565b61035f565b005b34801561017157600080fd5b50610163610558565b34801561018657600080fd5b5061013066038d7ea4c6800081565b3480156101a157600080fd5b506101306101b0366004610ba8565b6001600160a01b031660009081526002602052604090205490565b3480156101d757600080fd5b506102166101e6366004610ba8565b6001600160a01b031660009081526020818152604080832054600183528184205460029093529220549192909190565b6040805193845260208401929092529082015260600161013a565b34801561023d57600080fd5b5047610130565b34801561025057600080fd5b506102787f000000000000000000000000000000000000000000000000000000000000000081565b6040516001600160a01b03909116815260200161013a565b34801561029c57600080fd5b5061016361067b565b3480156102b157600080fd5b506101306102c0366004610ba8565b60006020819052908152604090205481565b61016361080d565b3480156102e657600080fd5b506101306611c37937e0800081565b610163610875565b34801561030957600080fd5b50610130610318366004610ba8565b610980565b34801561032957600080fd5b50610130600a81565b34801561033e57600080fd5b5061013061034d366004610ba8565b60016020526000908152604090205481565b336000908152600260205260409020548111156103ba5760405162461bcd60e51b8152602060048201526014602482015273496e73756666696369656e742062616c616e636560601b60448201526064015b60405180910390fd5b6000811161041b5760405162461bcd60e51b815260206004820152602860248201527f5769746864726177616c20616d6f756e74206d75737420626520677265617465604482015267072207468616e20360c41b60648201526084016103b1565b336000908152600260205260408120805483929061043a908490610c07565b9091555050604051600090339083908381818185875af1925050503d8060008114610481576040519150601f19603f3d011682016040523d82523d6000602084013e610486565b606091505b50509050806104cc5760405162461bcd60e51b81526020600482015260126024820152712330b4b632b2103a379039b2b7321026a7a760711b60448201526064016103b1565b61050c6040518060400160405280601781526020017f55736572202573207769746864726577202564204d4f4e00000000000000000081525033846109c8565b33600081815260026020908152604091829020548251868152918201527f198c9a3869a23d7c0e404b2f9adb78e7f3c699f6df9bfc4ffa588c64036d217e910160405180910390a25050565b336001600160a01b037f000000000000000000000000000000000000000000000000000000000000000016146105c05760405162461bcd60e51b815260206004820152600d60248201526c2737ba103a34329027bbb732b960991b60448201526064016103b1565b60007f00000000000000000000000000000000000000000000000000000000000000006001600160a01b03164760405160006040518083038185875af1925050503d806000811461062d576040519150601f19603f3d011682016040523d82523d6000602084013e610632565b606091505b50509050806106785760405162461bcd60e51b81526020600482015260126024820152712330b4b632b2103a379039b2b7321026a7a760711b60448201526064016103b1565b50565b3360009081526002602052604090205466038d7ea4c6800011156106f85760405162461bcd60e51b815260206004820152602e60248201527f496e73756666696369656e742062616c616e63652e20506c656173652064657060448201526d37b9b4ba1036b7b9329026a7a71760911b60648201526084016103b1565b336000908152600260205260408120805466038d7ea4c68000929061071e908490610c07565b909155505033600090815260208190526040812080549161073e83610c20565b909155505060408051808201825260208082527f5377697065207265636f7264656420666f722025732c20746f74616c3a20256481830152336000818152918290529290205461078e92906109c8565b336000818152602081815260409182902054825190815266038d7ea4c68000918101919091527f497aa4075ea23bfd288bf7414e005828fd1e56dd9831cdf389f3957664255fa9910160405180910390a2336000908152602081905260409020546107fb90600a90610c39565b60000361080b5761080b33610a14565b565b336001600160a01b037f0000000000000000000000000000000000000000000000000000000000000000161461080b5760405162461bcd60e51b815260206004820152600d60248201526c2737ba103a34329027bbb732b960991b60448201526064016103b1565b600034116108d35760405162461bcd60e51b815260206004820152602560248201527f4465706f73697420616d6f756e74206d75737420626520677265617465722074604482015264068616e20360dc1b60648201526084016103b1565b33600090815260026020526040812080543492906108f2908490610c5b565b909155505060408051808201909152601881527f55736572202573206465706f7369746564202564204d4f4e000000000000000060208201526109369033346109c8565b33600081815260026020908152604091829020548251348152918201527f416e5cf613d5ad993df0f6f121ab76a6a20c6ac34404451a51863abe9907650e910160405180910390a2565b6001600160a01b038116600090815260208190526040812054816109a5600a83610c39565b905080156109bd576109b881600a610c07565b6109c0565b600a5b949350505050565b610a0f8383836040516024016109e093929190610c6e565b60408051601f198184030181529190526020810180516001600160e01b0316630d26b92560e01b179052610b83565b505050565b6611c37937e08000471015610a7c5760405162461bcd60e51b815260206004820152602860248201527f496e73756666696369656e7420636f6e74726163742062616c616e636520666f6044820152671c881c995dd85c9960c21b60648201526084016103b1565b6001600160a01b038116600090815260016020526040812080546611c37937e080009290610aab908490610c5b565b90915550506001600160a01b038116600090815260026020526040812080546611c37937e080009290610adf908490610c5b565b909155505060408051808201909152601a81527f52657761726420676976656e20746f2025733a202564204d4f4e0000000000006020820152610b2a90826611c37937e080006109c8565b6001600160a01b038116600081815260208181526040918290205482516611c37937e080008152918201527f3371023e6a074f19e1274d8beabe04716dce6fd69169a20ea8ba520d537d594b910160405180910390a250565b6106788160006a636f6e736f6c652e6c6f679050600080835160208501845afa505050565b600060208284031215610bba57600080fd5b81356001600160a01b0381168114610bd157600080fd5b9392505050565b600060208284031215610bea57600080fd5b5035919050565b634e487b7160e01b600052601160045260246000fd5b81810381811115610c1a57610c1a610bf1565b92915050565b600060018201610c3257610c32610bf1565b5060010190565b600082610c5657634e487b7160e01b600052601260045260246000fd5b500690565b80820180821115610c1a57610c1a610bf1565b606081526000845180606084015260005b81811015610c9c5760208188018101516080868401015201610c7f565b50600060808285018101919091526001600160a01b03959095166020840152604083019390935250601f909101601f1916010191905056fea2646970667358221220334fb406c4463310a4fda9315e1446ac557bc5b3989f322d7770527da90732c064736f6c63430008140033",
  "devdoc": {
    "author": "MemeTinder Team",
    "kind": "dev",
    "methods": {},
    "version": 1
  },
  "userdoc": {
    "kind": "user",
    "methods": {},
    "notice": "A smart contract for Meme Tinder game Users pay 0.001 MON per swipe and get rewards after reaching certain thresholds",
    "version": 1
  },
  "storageLayout": {
    "storage": [
      {
        "astId": 16,
        "contract": "contracts/YourContract.sol:YourContract",
        "label": "userSwipeCount",
        "offset": 0,
        "slot": "0",
        "type": "t_mapping(t_address,t_uint256)"
      },
      {
        "astId": 20,
        "contract": "contracts/YourContract.sol:YourContract",
        "label": "userTotalRewards",
        "offset": 0,
        "slot": "1",
        "type": "t_mapping(t_address,t_uint256)"
      },
      {
        "astId": 24,
        "contract": "contracts/YourContract.sol:YourContract",
        "label": "userBalance",
        "offset": 0,
        "slot": "2",
        "type": "t_mapping(t_address,t_uint256)"
      }
    ],
    "types": {
      "t_address": {
        "encoding": "inplace",
        "label": "address",
        "numberOfBytes": "20"
      },
      "t_mapping(t_address,t_uint256)": {
        "encoding": "mapping",
        "key": "t_address",
        "label": "mapping(address => uint256)",
        "numberOfBytes": "32",
        "value": "t_uint256"
      },
      "t_uint256": {
        "encoding": "inplace",
        "label": "uint256",
        "numberOfBytes": "32"
      }
    }
  }
}